:1000000045C0000053C0000051C000004FC00000B8
:100010004DC000004BC0000049C0000047C00000B8
:1000200045C0000043C0000041C000003FC00000C8
:100030003DC000003BC0000039C0000037C00000D8
:1000400035C0000033C0000031C000002FC00000E8
:100050002DC000002BC0000029C0000027C00000F8
:1000600025C0000023C0000021C000001FC0000008
:100070001DC000001BC0000019C0000017C0000018
:1000800015C0000013C0000011C0000011241FBEE5
:10009000CFEFD0E4DEBFCDBF21E0A0E0B1E001C0F2
:1000A0001D92A430B207E1F7A4D0B2C0A9CF80B1AD
:1000B00091E0282F217080FD90E09093030180B1A2
:1000C000809582708093020190910001923071F1CD
:1000D00028F4992359F09130E9F066C0943009F47E
:1000E00041C080F1953009F451C05EC0222321F057
:1000F000882309F47DC006C081116FC081E0809320
:10010000000158C082E0809300015CC083E08093CE
:10011000000160C0211106C0882321F083E0809394
:10012000000158C085E0809300010895211106C0A8
:10013000882321F083E0809300014CC085E0809308
:1001400000010895222309F44FC0811107C01092C5
:100150000001089581E0809300012CC082E080932B
:10016000000130C021110AC0882321F083E0809370
:10017000000130C081E0809300011CC02223C1F146
:100180008823B1F182E0809300011CC0222331F06A
:10019000811127C084E0809300010895882341F1F4
:1001A00083E08093000116C0923061F0933091F0AB
:1001B0009130F1F4809101018930D0F48F5F809308
:1001C0000101089580910101882391F0815080936D
:1001D00001010895109201010895222309F496CF98
:1001E00091CF2223E9F20895882309F4B3CFF2CF07
:1001F000089511B88FEF82B987B918B8109200012D
:1002000087E08093010153DF8091010188B9FBCF22
:04021000F894FFCF90
:00000001FF
